{
  "contractName": "ColdChain",
  "abi": [
    {
      "anonymous": false,
      "inputs": [
        {
          "indexed": false,
          "internalType": "address",
          "name": "entitytId",
          "type": "address"
        },
        {
          "indexed": false,
          "internalType": "string",
          "name": "entityMode",
          "type": "string"
        }
      ],
      "name": "AddEntity",
      "type": "event"
    },
    {
      "anonymous": false,
      "inputs": [
        {
          "indexed": false,
          "internalType": "uint256",
          "name": "vaccineBatchId",
          "type": "uint256"
        },
        {
          "indexed": true,
          "internalType": "address",
          "name": "manufacturer",
          "type": "address"
        }
      ],
      "name": "AddVaccineBatch",
      "type": "event"
    },
    {
      "anonymous": false,
      "inputs": [
        {
          "indexed": true,
          "internalType": "address",
          "name": "issuer",
          "type": "address"
        },
        {
          "indexed": true,
          "internalType": "address",
          "name": "prover",
          "type": "address"
        },
        {
          "indexed": false,
          "internalType": "uint256",
          "name": "certificateId",
          "type": "uint256"
        }
      ],
      "name": "IssueCertificate",
      "type": "event"
    },
    {
      "inputs": [],
      "name": "MAX_CERTIFICATIONS",
      "outputs": [
        {
          "internalType": "uint256",
          "name": "",
          "type": "uint256"
        }
      ],
      "stateMutability": "view",
      "type": "function",
      "constant": true
    },
    {
      "inputs": [
        {
          "internalType": "uint256",
          "name": "",
          "type": "uint256"
        }
      ],
      "name": "certificateIds",
      "outputs": [
        {
          "internalType": "uint256",
          "name": "",
          "type": "uint256"
        }
      ],
      "stateMutability": "view",
      "type": "function",
      "constant": true
    },
    {
      "inputs": [
        {
          "internalType": "uint256",
          "name": "",
          "type": "uint256"
        }
      ],
      "name": "certificates",
      "outputs": [
        {
          "internalType": "uint256",
          "name": "id",
          "type": "uint256"
        },
        {
          "components": [
            {
              "internalType": "address",
              "name": "id",
              "type": "address"
            },
            {
              "internalType": "enum ColdChain.Mode",
              "name": "mode",
              "type": "uint8"
            },
            {
              "internalType": "uint256[]",
              "name": "certificateIds",
              "type": "uint256[]"
            }
          ],
          "internalType": "struct ColdChain.Entity",
          "name": "issuer",
          "type": "tuple"
        },
        {
          "components": [
            {
              "internalType": "address",
              "name": "id",
              "type": "address"
            },
            {
              "internalType": "enum ColdChain.Mode",
              "name": "mode",
              "type": "uint8"
            },
            {
              "internalType": "uint256[]",
              "name": "certificateIds",
              "type": "uint256[]"
            }
          ],
          "internalType": "struct ColdChain.Entity",
          "name": "prover",
          "type": "tuple"
        },
        {
          "internalType": "bytes",
          "name": "signature",
          "type": "bytes"
        },
        {
          "internalType": "enum ColdChain.Status",
          "name": "status",
          "type": "uint8"
        }
      ],
      "stateMutability": "view",
      "type": "function",
      "constant": true
    },
    {
      "inputs": [
        {
          "internalType": "address",
          "name": "",
          "type": "address"
        }
      ],
      "name": "entities",
      "outputs": [
        {
          "internalType": "address",
          "name": "id",
          "type": "address"
        },
        {
          "internalType": "enum ColdChain.Mode",
          "name": "mode",
          "type": "uint8"
        }
      ],
      "stateMutability": "view",
      "type": "function",
      "constant": true
    },
    {
      "inputs": [
        {
          "internalType": "uint256",
          "name": "",
          "type": "uint256"
        }
      ],
      "name": "vaccineBactchIds",
      "outputs": [
        {
          "internalType": "uint256",
          "name": "",
          "type": "uint256"
        }
      ],
      "stateMutability": "view",
      "type": "function",
      "constant": true
    },
    {
      "inputs": [
        {
          "internalType": "uint256",
          "name": "",
          "type": "uint256"
        }
      ],
      "name": "vaccineBatches",
      "outputs": [
        {
          "internalType": "uint256",
          "name": "id",
          "type": "uint256"
        },
        {
          "internalType": "string",
          "name": "brand",
          "type": "string"
        },
        {
          "internalType": "address",
          "name": "manufacturer",
          "type": "address"
        }
      ],
      "stateMutability": "view",
      "type": "function",
      "constant": true
    },
    {
      "inputs": [
        {
          "internalType": "address",
          "name": "_id",
          "type": "address"
        },
        {
          "internalType": "string",
          "name": "_mode",
          "type": "string"
        }
      ],
      "name": "addEntity",
      "outputs": [],
      "stateMutability": "nonpayable",
      "type": "function"
    },
    {
      "inputs": [
        {
          "internalType": "string",
          "name": "brand",
          "type": "string"
        },
        {
          "internalType": "address",
          "name": "manufacturer",
          "type": "address"
        }
      ],
      "name": "addVaccineBatch",
      "outputs": [
        {
          "internalType": "uint256",
          "name": "",
          "type": "uint256"
        }
      ],
      "stateMutability": "nonpayable",
      "type": "function"
    },
    {
      "inputs": [
        {
          "internalType": "address",
          "name": "_issuer",
          "type": "address"
        },
        {
          "internalType": "address",
          "name": "_prover",
          "type": "address"
        },
        {
          "internalType": "string",
          "name": "_status",
          "type": "string"
        },
        {
          "internalType": "uint256",
          "name": "vaccineBatchId",
          "type": "uint256"
        },
        {
          "internalType": "bytes",
          "name": "signature",
          "type": "bytes"
        }
      ],
      "name": "issueCertificate",
      "outputs": [
        {
          "internalType": "uint256",
          "name": "",
          "type": "uint256"
        }
      ],
      "stateMutability": "nonpayable",
      "type": "function"
    },
    {
      "inputs": [
        {
          "internalType": "bytes32",
          "name": "message",
          "type": "bytes32"
        },
        {
          "internalType": "uint256",
          "name": "id",
          "type": "uint256"
        },
        {
          "internalType": "address",
          "name": "issuer",
          "type": "address"
        }
      ],
      "name": "isMatchingSignature",
      "outputs": [
        {
          "internalType": "bool",
          "name": "",
          "type": "bool"
        }
      ],
      "stateMutability": "view",
      "type": "function",
      "constant": true
    }
  ],
  "bytecode": "0x608060405234801561001057600080fd5b506127dd806100206000396000f3fe608060405234801561001057600080fd5b506004361061009e5760003560e01c8063663b3e2211610066578063663b3e2214610184578063acac50d2146101b8578063b5bad46d146101e8578063c8d8184b14610204578063fc79b0a9146102345761009e565b806303a692b9146100a35780630f9c774d146100d55780631d8ee48a1461010557806345194c07146101365780634851a01d14610166575b600080fd5b6100bd60048036038101906100b891906118cd565b610264565b6040516100cc939291906119e3565b60405180910390f35b6100ef60048036038101906100ea91906118cd565b610336565b6040516100fc9190611a21565b60405180910390f35b61011f600480360381019061011a9190611a68565b61035a565b60405161012d929190611b0c565b60405180910390f35b610150600480360381019061014b9190611b6b565b6103ab565b60405161015d9190611bd9565b60405180910390f35b61016e610733565b60405161017b9190611a21565b60405180910390f35b61019e600480360381019061019991906118cd565b610738565b6040516101af959493929190611dbd565b60405180910390f35b6101d260048036038101906101cd91906118cd565b6109e9565b6040516101df9190611a21565b60405180910390f35b61020260048036038101906101fd9190611f5a565b610a0d565b005b61021e60048036038101906102199190612057565b610bca565b60405161022b9190611a21565b60405180910390f35b61024e6004803603810190610249919061210a565b611178565b60405161025b9190611a21565b60405180910390f35b600260205280600052604060002060009150905080600001549080600101805461028d90612195565b80601f01602080910402602001604051908101604052809291908181526020018280546102b990612195565b80156103065780601f106102db57610100808354040283529160200191610306565b820191906000526020600020905b8154815290600101906020018083116102e957829003601f168201915b5050505050908060020160009054906101000a900473ffffffffffffffffffffffffffffffffffffffff16905083565b6000818154811061034657600080fd5b906000526020600020016000915090505481565b60046020528060005260406000206000915090508060000160009054906101000a900473ffffffffffffffffffffffffffffffffffffffff16908060000160149054906101000a900460ff16905082565b600080600360008581526020019081526020016000206040518060a001604052908160008201548152602001600182016040518060600160405290816000820160009054906101000a900473ffffffffffffffffffffffffffffffffffffffff1673ffffffffffffffffffffffffffffffffffffffff1673ffffffffffffffffffffffffffffffffffffffff1681526020016000820160149054906101000a900460ff16600281111561046157610460611a95565b5b600281111561047357610472611a95565b5b8152602001600182018054806020026020016040519081016040528092919081815260200182805480156104c657602002820191906000526020600020905b8154815260200190600101908083116104b2575b5050505050815250508152602001600382016040518060600160405290816000820160009054906101000a900473ffffffffffffffffffffffffffffffffffffffff1673ffffffffffffffffffffffffffffffffffffffff1673ffffffffffffffffffffffffffffffffffffffff1681526020016000820160149054906101000a900460ff16600281111561055e5761055d611a95565b5b60028111156105705761056f611a95565b5b8152602001600182018054806020026020016040519081016040528092919081815260200182805480156105c357602002820191906000526020600020905b8154815260200190600101908083116105af575b50505050508152505081526020016005820180546105e090612195565b80601f016020809104026020016040519081016040528092919081815260200182805461060c90612195565b80156106595780601f1061062e57610100808354040283529160200191610659565b820191906000526020600020905b81548152906001019060200180831161063c57829003601f168201915b505050505081526020016006820160009054906101000a900460ff16600481111561068757610686611a95565b5b600481111561069957610698611a95565b5b8152505090508273ffffffffffffffffffffffffffffffffffffffff1681602001516000015173ffffffffffffffffffffffffffffffffffffffff16146106df57600080fd5b60006106ef868360600151611339565b905081602001516000015173ffffffffffffffffffffffffffffffffffffffff168173ffffffffffffffffffffffffffffffffffffffff1614925050509392505050565b600281565b6003602052806000526040600020600091509050806000015490806001016040518060600160405290816000820160009054906101000a900473ffffffffffffffffffffffffffffffffffffffff1673ffffffffffffffffffffffffffffffffffffffff1673ffffffffffffffffffffffffffffffffffffffff1681526020016000820160149054906101000a900460ff1660028111156107dc576107db611a95565b5b60028111156107ee576107ed611a95565b5b81526020016001820180548060200260200160405190810160405280929190818152602001828054801561084157602002820191906000526020600020905b81548152602001906001019080831161082d575b50505050508152505090806003016040518060600160405290816000820160009054906101000a900473ffffffffffffffffffffffffffffffffffffffff1673ffffffffffffffffffffffffffffffffffffffff1673ffffffffffffffffffffffffffffffffffffffff1681526020016000820160149054906101000a900460ff1660028111156108d5576108d4611a95565b5b60028111156108e7576108e6611a95565b5b81526020016001820180548060200260200160405190810160405280929190818152602001828054801561093a57602002820191906000526020600020905b815481526020019060010190808311610926575b5050505050815250509080600501805461095390612195565b80601f016020809104026020016040519081016040528092919081815260200182805461097f90612195565b80156109cc5780601f106109a1576101008083540402835291602001916109cc565b820191906000526020600020905b8154815290600101906020018083116109af57829003601f168201915b5050505050908060060160009054906101000a900460ff16905085565b600181815481106109f957600080fd5b906000526020600020016000915090505481565b6000610a1882611411565b90506000600267ffffffffffffffff811115610a3757610a36611e2f565b5b604051908082528060200260200182016040528015610a655781602001602082028036833780820191505090505b509050600060405180606001604052808673ffffffffffffffffffffffffffffffffffffffff168152602001846002811115610aa457610aa3611a95565b5b815260200183815250905080600460008773ffffffffffffffffffffffffffffffffffffffff1673ffffffffffffffffffffffffffffffffffffffff16815260200190815260200160002060008201518160000160006101000a81548173ffffffffffffffffffffffffffffffffffffffff021916908373ffffffffffffffffffffffffffffffffffffffff16021790555060208201518160000160146101000a81548160ff02191690836002811115610b6157610b60611a95565b5b02179055506040820151816001019080519060200190610b8292919061170d565b509050507ff5a37da00f0e4029ee2682b1919ee55d7e6f9d7492237aad9bd1aea7d53d4874816000015185604051610bbb9291906121c6565b60405180910390a15050505050565b600080600460008873ffffffffffffffffffffffffffffffffffffffff1673ffffffffffffffffffffffffffffffffffffffff1681526020019081526020016000206040518060600160405290816000820160009054906101000a900473ffffffffffffffffffffffffffffffffffffffff1673ffffffffffffffffffffffffffffffffffffffff1673ffffffffffffffffffffffffffffffffffffffff1681526020016000820160149054906101000a900460ff166002811115610c9257610c91611a95565b5b6002811115610ca457610ca3611a95565b5b815260200160018201805480602002602001604051908101604052809291908181526020018280548015610cf757602002820191906000526020600020905b815481526020019060010190808311610ce3575b505050505081525050905060006002811115610d1657610d15611a95565b5b81602001516002811115610d2d57610d2c611a95565b5b14610d3757600080fd5b6000600460008973ffffffffffffffffffffffffffffffffffffffff1673ffffffffffffffffffffffffffffffffffffffff1681526020019081526020016000206040518060600160405290816000820160009054906101000a900473ffffffffffffffffffffffffffffffffffffffff1673ffffffffffffffffffffffffffffffffffffffff1673ffffffffffffffffffffffffffffffffffffffff1681526020016000820160149054906101000a900460ff166002811115610dfe57610dfd611a95565b5b6002811115610e1057610e0f611a95565b5b815260200160018201805480602002602001604051908101604052809291908181526020018280548015610e6357602002820191906000526020600020905b815481526020019060010190808311610e4f575b505050505081525050905060016002811115610e8257610e81611a95565b5b81602001516002811115610e9957610e98611a95565b5b14610ea357600080fd5b6000610eae87611534565b905060008080549050905060006040518060a00160405280838152602001868152602001858152602001888152602001846004811115610ef157610ef0611a95565b5b815250905060008080549050908060018154018082558091505060019003906000526020600020016000909190919091505580600360006001600080549050610f3a9190612225565b81526020019081526020016000206000820151816000015560208201518160010160008201518160000160006101000a81548173ffffffffffffffffffffffffffffffffffffffff021916908373ffffffffffffffffffffffffffffffffffffffff16021790555060208201518160000160146101000a81548160ff02191690836002811115610fcd57610fcc611a95565b5b02179055506040820151816001019080519060200190610fee92919061170d565b50505060408201518160030160008201518160000160006101000a81548173ffffffffffffffffffffffffffffffffffffffff021916908373ffffffffffffffffffffffffffffffffffffffff16021790555060208201518160000160146101000a81548160ff0219169083600281111561106c5761106b611a95565b5b0217905550604082015181600101908051906020019061108d92919061170d565b50505060608201518160050190805190602001906110ac92919061175a565b5060808201518160060160006101000a81548160ff021916908360048111156110d8576110d7611a95565b5b02179055509050508973ffffffffffffffffffffffffffffffffffffffff168b73ffffffffffffffffffffffffffffffffffffffff167fc9e3e855764ebb21ed83dcdf8ed5e1398c752d6446308e092c28a84a77a199bd60016000805490506111419190612225565b60405161114e9190611a21565b60405180910390a360016000805490506111689190612225565b9550505050505095945050505050565b600080600267ffffffffffffffff81111561119657611195611e2f565b5b6040519080825280602002602001820160405280156111c45781602001602082028036833780820191505090505b50905060006001805490509050600060405180608001604052808381526020018781526020018673ffffffffffffffffffffffffffffffffffffffff16815260200184815250905080600260008481526020019081526020016000206000820151816000015560208201518160010190805190602001906112469291906117e0565b5060408201518160020160006101000a81548173ffffffffffffffffffffffffffffffffffffffff021916908373ffffffffffffffffffffffffffffffffffffffff16021790555060608201518160030190805190602001906112aa92919061170d565b509050506001829080600181540180825580915050600190039060005260206000200160009091909190915055806040015173ffffffffffffffffffffffffffffffffffffffff167fe85391abb5e51659c581dd95107048251657ee66755655cc08c9c0ec3a0a913982600001516040516113259190611a21565b60405180910390a281935050505092915050565b600080600080611348856116db565b92509250925060006040518060400160405280601c81526020017f19457468657265756d205369676e6564204d6573736167653a0a33320000000081525090506000818860405160200161139d9291906122b6565b604051602081830303815290604052805190602001209050600181868686604051600081526020016040526040516113d89493929190612309565b6020604051602081039080840390855afa1580156113fa573d6000803e3d6000fd5b505050602060405103519550505050505092915050565b60008082604051602001611425919061238a565b604051602081830303815290604052805190602001209050600060405160200161144e906123ed565b60405160208183030381529060405280519060200120905060006040516020016114779061244e565b60405160208183030381529060405280519060200120905060006040516020016114a0906124af565b6040516020818303038152906040528051906020012090508284036114cc57600094505050505061152f565b8184036114e057600194505050505061152f565b8084036114f457600294505050505061152f565b6040517f08c379a000000000000000000000000000000000000000000000000000000000815260040161152690612510565b60405180910390fd5b919050565b60008082604051602001611548919061238a565b60405160208183030381529060405280519060200120905060006040516020016115719061257c565b604051602081830303815290604052805190602001209050600060405160200161159a906125dd565b60405160208183030381529060405280519060200120905060006040516020016115c39061263e565b60405160208183030381529060405280519060200120905060006040516020016115ec9061269f565b604051602081830303815290604052805190602001209050600060405160200161161590612700565b60405160208183030381529060405280519060200120905084860361164357600096505050505050506116d6565b83860361165957600196505050505050506116d6565b82860361166f57600296505050505050506116d6565b81860361168557600396505050505050506116d6565b80860361169b57600496505050505050506116d6565b6040517f08c379a00000000000000000000000000000000000000000000000000000000081526004016116cd90612787565b60405180910390fd5b919050565b600080600060418451146116ee57600080fd5b6020840151915060408401519050606084015160001a92509193909250565b828054828255906000526020600020908101928215611749579160200282015b8281111561174857825182559160200191906001019061172d565b5b5090506117569190611866565b5090565b82805461176690612195565b90600052602060002090601f01602090048101928261178857600085556117cf565b82601f106117a157805160ff19168380011785556117cf565b828001600101855582156117cf579182015b828111156117ce5782518255916020019190600101906117b3565b5b5090506117dc9190611866565b5090565b8280546117ec90612195565b90600052602060002090601f01602090048101928261180e5760008555611855565b82601f1061182757805160ff1916838001178555611855565b82800160010185558215611855579182015b82811115611854578251825591602001919060010190611839565b5b5090506118629190611866565b5090565b5b8082111561187f576000816000905550600101611867565b5090565b6000604051905090565b600080fd5b600080fd5b6000819050919050565b6118aa81611897565b81146118b557600080fd5b50565b6000813590506118c7816118a1565b92915050565b6000602082840312156118e3576118e261188d565b5b60006118f1848285016118b8565b91505092915050565b61190381611897565b82525050565b600081519050919050565b600082825260208201905092915050565b60005b83811015611943578082015181840152602081019050611928565b83811115611952576000848401525b50505050565b6000601f19601f8301169050919050565b600061197482611909565b61197e8185611914565b935061198e818560208601611925565b61199781611958565b840191505092915050565b600073ffffffffffffffffffffffffffffffffffffffff82169050919050565b60006119cd826119a2565b9050919050565b6119dd816119c2565b82525050565b60006060820190506119f860008301866118fa565b8181036020830152611a0a8185611969565b9050611a1960408301846119d4565b949350505050565b6000602082019050611a3660008301846118fa565b92915050565b611a45816119c2565b8114611a5057600080fd5b50565b600081359050611a6281611a3c565b92915050565b600060208284031215611a7e57611a7d61188d565b5b6000611a8c84828501611a53565b91505092915050565b7f4e487b7100000000000000000000000000000000000000000000000000000000600052602160045260246000fd5b60038110611ad557611ad4611a95565b5b50565b6000819050611ae682611ac4565b919050565b6000611af682611ad8565b9050919050565b611b0681611aeb565b82525050565b6000604082019050611b2160008301856119d4565b611b2e6020830184611afd565b9392505050565b6000819050919050565b611b4881611b35565b8114611b5357600080fd5b50565b600081359050611b6581611b3f565b92915050565b600080600060608486031215611b8457611b8361188d565b5b6000611b9286828701611b56565b9350506020611ba3868287016118b8565b9250506040611bb486828701611a53565b9150509250925092565b60008115159050919050565b611bd381611bbe565b82525050565b6000602082019050611bee6000830184611bca565b92915050565b611bfd816119c2565b82525050565b611c0c81611aeb565b82525050565b600081519050919050565b600082825260208201905092915050565b6000819050602082019050919050565b611c4781611897565b82525050565b6000611c598383611c3e565b60208301905092915050565b6000602082019050919050565b6000611c7d82611c12565b611c878185611c1d565b9350611c9283611c2e565b8060005b83811015611cc3578151611caa8882611c4d565b9750611cb583611c65565b925050600181019050611c96565b5085935050505092915050565b6000606083016000830151611ce86000860182611bf4565b506020830151611cfb6020860182611c03565b5060408301518482036040860152611d138282611c72565b9150508091505092915050565b600081519050919050565b600082825260208201905092915050565b6000611d4782611d20565b611d518185611d2b565b9350611d61818560208601611925565b611d6a81611958565b840191505092915050565b60058110611d8657611d85611a95565b5b50565b6000819050611d9782611d75565b919050565b6000611da782611d89565b9050919050565b611db781611d9c565b82525050565b600060a082019050611dd260008301886118fa565b8181036020830152611de48187611cd0565b90508181036040830152611df88186611cd0565b90508181036060830152611e0c8185611d3c565b9050611e1b6080830184611dae565b9695505050505050565b600080fd5b600080fd5b7f4e487b7100000000000000000000000000000000000000000000000000000000600052604160045260246000fd5b611e6782611958565b810181811067ffffffffffffffff82111715611e8657611e85611e2f565b5b80604052505050565b6000611e99611883565b9050611ea58282611e5e565b919050565b600067ffffffffffffffff821115611ec557611ec4611e2f565b5b611ece82611958565b9050602081019050919050565b82818337600083830152505050565b6000611efd611ef884611eaa565b611e8f565b905082815260208101848484011115611f1957611f18611e2a565b5b611f24848285611edb565b509392505050565b600082601f830112611f4157611f40611e25565b5b8135611f51848260208601611eea565b91505092915050565b60008060408385031215611f7157611f7061188d565b5b6000611f7f85828601611a53565b925050602083013567ffffffffffffffff811115611fa057611f9f611892565b5b611fac85828601611f2c565b9150509250929050565b600067ffffffffffffffff821115611fd157611fd0611e2f565b5b611fda82611958565b9050602081019050919050565b6000611ffa611ff584611fb6565b611e8f565b90508281526020810184848401111561201657612015611e2a565b5b612021848285611edb565b509392505050565b600082601f83011261203e5761203d611e25565b5b813561204e848260208601611fe7565b91505092915050565b600080600080600060a086880312156120735761207261188d565b5b600061208188828901611a53565b955050602061209288828901611a53565b945050604086013567ffffffffffffffff8111156120b3576120b2611892565b5b6120bf88828901611f2c565b93505060606120d0888289016118b8565b925050608086013567ffffffffffffffff8111156120f1576120f0611892565b5b6120fd88828901612029565b9150509295509295909350565b600080604083850312156121215761212061188d565b5b600083013567ffffffffffffffff81111561213f5761213e611892565b5b61214b85828601611f2c565b925050602061215c85828601611a53565b9150509250929050565b7f4e487b7100000000000000000000000000000000000000000000000000000000600052602260045260246000fd5b600060028204905060018216806121ad57607f821691505b6020821081036121c0576121bf612166565b5b50919050565b60006040820190506121db60008301856119d4565b81810360208301526121ed8184611969565b90509392505050565b7f4e487b7100000000000000000000000000000000000000000000000000000000600052601160045260246000fd5b600061223082611897565b915061223b83611897565b92508282101561224e5761224d6121f6565b5b828203905092915050565b600081905092915050565b600061226f82611d20565b6122798185612259565b9350612289818560208601611925565b80840191505092915050565b6000819050919050565b6122b06122ab82611b35565b612295565b82525050565b60006122c28285612264565b91506122ce828461229f565b6020820191508190509392505050565b6122e781611b35565b82525050565b600060ff82169050919050565b612303816122ed565b82525050565b600060808201905061231e60008301876122de565b61232b60208301866122fa565b61233860408301856122de565b61234560608301846122de565b95945050505050565b600081905092915050565b600061236482611909565b61236e818561234e565b935061237e818560208601611925565b80840191505092915050565b60006123968284612359565b915081905092915050565b7f4953535545520000000000000000000000000000000000000000000000000000600082015250565b60006123d760068361234e565b91506123e2826123a1565b600682019050919050565b60006123f8826123ca565b9150819050919050565b7f50524f5645520000000000000000000000000000000000000000000000000000600082015250565b600061243860068361234e565b915061244382612402565b600682019050919050565b60006124598261242b565b9150819050919050565b7f5645524946494552000000000000000000000000000000000000000000000000600082015250565b600061249960088361234e565b91506124a482612463565b600882019050919050565b60006124ba8261248c565b9150819050919050565b7f726563656976656420696e76616c696420656e74697479206d6f646500000000600082015250565b60006124fa601c83611914565b9150612505826124c4565b602082019050919050565b60006020820190508181036000830152612529816124ed565b9050919050565b7f4d414e5546414354555245440000000000000000000000000000000000000000600082015250565b6000612566600c8361234e565b915061257182612530565b600c82019050919050565b600061258782612559565b9150819050919050565b7f44454c49564552494e475f494e5445524e4154494f4e414c0000000000000000600082015250565b60006125c760188361234e565b91506125d282612591565b601882019050919050565b60006125e8826125ba565b9150819050919050565b7f53544f5245440000000000000000000000000000000000000000000000000000600082015250565b600061262860068361234e565b9150612633826125f2565b600682019050919050565b60006126498261261b565b9150819050919050565b7f44454c49564552494e475f4c4f43414c00000000000000000000000000000000600082015250565b600061268960108361234e565b915061269482612653565b601082019050919050565b60006126aa8261267c565b9150819050919050565b7f44454c4956455245440000000000000000000000000000000000000000000000600082015250565b60006126ea60098361234e565b91506126f5826126b4565b600982019050919050565b600061270b826126dd565b9150819050919050565b7f726563656976656420696e76616c69642063657274696669636174652073746160008201527f7475730000000000000000000000000000000000000000000000000000000000602082015250565b6000612771602383611914565b915061277c82612715565b604082019050919050565b600060208201905081810360008301526127a081612764565b905091905056fea2646970667358221220123da86d8f936884a1dad3b400457bf541716ff3db58472943d826870afcf7e364736f6c634300080e0033",
  "immutableReferences": {},
  "source": "// SPDX-License-Identifier: MIT\r\npragma solidity >=0.7.0 <0.9.0;\r\n\r\nlibrary CryptoSuite {\r\n    function splitSginature(bytes memory sig) internal pure returns(uint8 v, bytes32 r, bytes32 s) {\r\n        require(sig.length == 65);\r\n\r\n        assembly {\r\n            r := mload(add(sig, 32))\r\n\r\n            s := mload(add(sig, 64))\r\n\r\n            v := byte(0, mload(add(sig, 96)))\r\n        }\r\n\r\n        return(v,r,s);\r\n    }\r\n\r\n    function recoverSigner(bytes32 message, bytes memory sig) internal pure returns (address) {\r\n        (uint8 v, bytes32 r, bytes32 s) = splitSginature(sig);\r\n        bytes memory prefix = \"\\x19Ethereum Signed Message:\\n32\";\r\n        bytes32 prefixedHash = keccak256(abi.encodePacked(prefix, message));\r\n\r\n        return ecrecover(prefixedHash, v, r, s);\r\n    }\r\n}\r\n\r\ncontract ColdChain {\r\n\r\n    enum Mode { ISSUER, PROVER, VERIFIER }\r\n    struct Entity {\r\n        address id; \r\n        Mode mode; \r\n        uint[] certificateIds;\r\n    }\r\n    \r\n    enum Status { MANUFACTURED, DELIVERING_INTERNATIONAL, STORED, DELIVERING_LOCAL, DELIVERED }\r\n\r\n    struct Certificate {\r\n        uint id; \r\n        Entity issuer; \r\n        Entity prover; \r\n        bytes signature;\r\n        Status status;\r\n    }\r\n\r\n    struct VaccineBatch {\r\n        uint id; \r\n        string brand; \r\n        address manufacturer; \r\n        uint[] certificateIds;\r\n    }\r\n\r\n    uint public constant MAX_CERTIFICATIONS = 2;\r\n\r\n    uint[] public certificateIds;\r\n    uint[] public vaccineBactchIds;\r\n\r\n    mapping(uint => VaccineBatch) public vaccineBatches;\r\n    mapping(uint => Certificate) public certificates; \r\n    mapping(address => Entity) public entities; \r\n\r\n    event AddEntity(address entitytId, string entityMode);\r\n    event AddVaccineBatch(uint vaccineBatchId, address indexed manufacturer);\r\n    event IssueCertificate(address indexed issuer, address indexed prover, uint certificateId);\r\n\r\n    function addEntity(address _id, string memory _mode) public {\r\n        Mode mode = unmarshalMode(_mode);\r\n        uint[] memory _certificateIds = new uint[](MAX_CERTIFICATIONS);\r\n        Entity memory entity = Entity(_id, mode, _certificateIds);\r\n        entities[_id] = entity;\r\n        emit AddEntity(entity.id, _mode);\r\n    }\r\n\r\n    function unmarshalMode(string memory _mode) private pure returns(Mode mode){\r\n        bytes32 encodedMode = keccak256(abi.encodePacked(_mode));\r\n        bytes32 encodedMode0 = keccak256(abi.encodePacked(\"ISSUER\"));\r\n        bytes32 encodedMode1 = keccak256(abi.encodePacked(\"PROVER\"));\r\n        bytes32 encodedMode2 = keccak256(abi.encodePacked(\"VERIFIER\"));\r\n\r\n        if (encodedMode == encodedMode0) {\r\n            return Mode.ISSUER;\r\n        } \r\n        else if (encodedMode == encodedMode1) {\r\n            return Mode.PROVER;\r\n        } \r\n        else if (encodedMode == encodedMode2) {\r\n            return Mode.VERIFIER;\r\n        } else {\r\n            revert(\"received invalid entity mode\");\r\n        }\r\n    }\r\n    \r\n    function addVaccineBatch(string memory brand, address manufacturer) public returns(uint){\r\n        uint[] memory _certificateIds = new uint[](MAX_CERTIFICATIONS);\r\n        uint id = vaccineBactchIds.length;\r\n        VaccineBatch memory batch = VaccineBatch(id, brand, manufacturer, _certificateIds);\r\n        vaccineBatches[id] = batch;\r\n        vaccineBactchIds.push(id);\r\n        emit AddVaccineBatch(batch.id, batch.manufacturer);\r\n\r\n        return id; \r\n    }\r\n\r\n    function issueCertificate(\r\n        address _issuer, address _prover, string memory _status,\r\n        uint vaccineBatchId, bytes memory signature) public returns(uint) {\r\n            \r\n            Entity memory issuer = entities[_issuer];\r\n            require(issuer.mode == Mode.ISSUER);\r\n\r\n            Entity memory prover = entities[_issuer];\r\n            require(prover.mode == Mode.PROVER);\r\n\r\n            Status status = unmarshalStatus(_status);\r\n\r\n            uint id = certificateIds.length;\r\n            Certificate memory certificate = Certificate(id, issuer, prover, signature, status);\r\n\r\n            certificateIds.push(certificateIds.length);\r\n            certificates[certificateIds.length - 1] = certificate;\r\n\r\n            emit IssueCertificate(_issuer, _prover, certificateIds.length-1);\r\n            return certificateIds.length-1;\r\n    }\r\n\r\n    function unmarshalStatus(string memory _status) private pure returns(Status status){\r\n        bytes32 encodedStatus = keccak256(abi.encodePacked(_status));\r\n        bytes32 encodedStatus0 = keccak256(abi.encodePacked(\"MANUFACTURED\"));\r\n        bytes32 encodedStatus1 = keccak256(abi.encodePacked(\"DELIVERING_INTERNATIONAL\"));\r\n        bytes32 encodedStatus2 = keccak256(abi.encodePacked(\"STORED\"));\r\n        bytes32 encodedStatus3 = keccak256(abi.encodePacked(\"DELIVERING_LOCAL\"));\r\n        bytes32 encodedStatus4 = keccak256(abi.encodePacked(\"DELIVERED\"));\r\n\r\n        if (encodedStatus == encodedStatus0) {\r\n            return Status.MANUFACTURED;\r\n        } \r\n        else if (encodedStatus == encodedStatus1) {\r\n            return Status.DELIVERING_INTERNATIONAL;\r\n        } \r\n        else if (encodedStatus == encodedStatus2) {\r\n            return Status.STORED;\r\n        } \r\n        else if (encodedStatus == encodedStatus3) {\r\n            return Status.DELIVERING_LOCAL;\r\n        } \r\n        else if (encodedStatus == encodedStatus4) {\r\n            return Status.DELIVERED;\r\n        } else {\r\n            revert(\"received invalid certificate status\");\r\n        }\r\n    }\r\n\r\n    function isMatchingSignature(bytes32 message, uint id, address issuer) public view returns(bool) {\r\n        Certificate memory cert = certificates[id];\r\n        require(cert.issuer.id == issuer);\r\n\r\n        address recoveredSigner = CryptoSuite.recoverSigner(message, cert.signature);\r\n\r\n        return recoveredSigner == cert.issuer.id;\r\n    }\r\n\r\n}",
  "sourcePath": "C:\\Users\\quick\\Documents\\GitHub\\vaccine-supply-chain\\contracts\\ColdChain.sol",
  "compiler": {
    "name": "solc",
    "version": "0.8.14+commit.80d49f37.Emscripten.clang"
  },
  "schemaVersion": "3.4.7",
  "updatedAt": "2022-06-11T02:13:11.058Z",
  "networkType": "ethereum",
  "devdoc": {
    "kind": "dev",
    "methods": {},
    "version": 1
  },
  "userdoc": {
    "kind": "user",
    "methods": {},
    "version": 1
  }
}